{
  "contractName": "Auth",
  "abi": [
    {
      "inputs": [],
      "stateMutability": "nonpayable",
      "type": "constructor"
    },
    {
      "anonymous": false,
      "inputs": [
        {
          "indexed": false,
          "internalType": "address",
          "name": "_add",
          "type": "address"
        },
        {
          "indexed": false,
          "internalType": "string",
          "name": "_id",
          "type": "string"
        }
      ],
      "name": "Destroy",
      "type": "event"
    },
    {
      "anonymous": false,
      "inputs": [
        {
          "indexed": false,
          "internalType": "address",
          "name": "_add",
          "type": "address"
        },
        {
          "indexed": false,
          "internalType": "string",
          "name": "_id",
          "type": "string"
        }
      ],
      "name": "Modify",
      "type": "event"
    },
    {
      "anonymous": false,
      "inputs": [
        {
          "indexed": false,
          "internalType": "address",
          "name": "_add",
          "type": "address"
        },
        {
          "indexed": false,
          "internalType": "string",
          "name": "_id",
          "type": "string"
        }
      ],
      "name": "Register",
      "type": "event"
    },
    {
      "inputs": [],
      "name": "userNums",
      "outputs": [
        {
          "internalType": "uint256",
          "name": "",
          "type": "uint256"
        }
      ],
      "stateMutability": "view",
      "type": "function"
    },
    {
      "inputs": [
        {
          "internalType": "string",
          "name": "_msg",
          "type": "string"
        },
        {
          "internalType": "bytes",
          "name": "_signature",
          "type": "bytes"
        }
      ],
      "name": "recoverSign",
      "outputs": [
        {
          "internalType": "address",
          "name": "",
          "type": "address"
        }
      ],
      "stateMutability": "pure",
      "type": "function"
    },
    {
      "inputs": [
        {
          "internalType": "string",
          "name": "_id",
          "type": "string"
        },
        {
          "internalType": "address",
          "name": "_pubAddr",
          "type": "address"
        }
      ],
      "name": "register",
      "outputs": [],
      "stateMutability": "nonpayable",
      "type": "function"
    },
    {
      "inputs": [
        {
          "internalType": "string",
          "name": "_id",
          "type": "string"
        }
      ],
      "name": "verify",
      "outputs": [
        {
          "internalType": "address",
          "name": "",
          "type": "address"
        }
      ],
      "stateMutability": "view",
      "type": "function"
    },
    {
      "inputs": [
        {
          "internalType": "string",
          "name": "_id",
          "type": "string"
        },
        {
          "internalType": "address",
          "name": "_newPubAddr",
          "type": "address"
        },
        {
          "internalType": "bytes",
          "name": "_signature",
          "type": "bytes"
        }
      ],
      "name": "modify",
      "outputs": [],
      "stateMutability": "nonpayable",
      "type": "function"
    },
    {
      "inputs": [
        {
          "internalType": "string",
          "name": "_id",
          "type": "string"
        },
        {
          "internalType": "bytes",
          "name": "_signature",
          "type": "bytes"
        }
      ],
      "name": "destroy",
      "outputs": [],
      "stateMutability": "nonpayable",
      "type": "function"
    },
    {
      "inputs": [],
      "name": "test",
      "outputs": [
        {
          "internalType": "uint256",
          "name": "",
          "type": "uint256"
        }
      ],
      "stateMutability": "view",
      "type": "function"
    },
    {
      "inputs": [
        {
          "internalType": "string",
          "name": "_message",
          "type": "string"
        }
      ],
      "name": "getEthSignedMessageHash",
      "outputs": [
        {
          "internalType": "bytes32",
          "name": "",
          "type": "bytes32"
        }
      ],
      "stateMutability": "pure",
      "type": "function"
    }
  ],
  "bytecode": "0x608060405234801561001057600080fd5b5060008081905550611893806100276000396000f3fe608060405234801561001057600080fd5b50600436106100885760003560e01c8063bb9b02e51161005b578063bb9b02e514610111578063bb9c6c3e1461012f578063f66c59671461015f578063f8a8fd6d1461018f57610088565b80631e59c5291461008d5780638eb660ba146100a9578063a04b2769146100c5578063a45814bf146100f5575b600080fd5b6100a760048036038101906100a29190610ef7565b6101ad565b005b6100c360048036038101906100be9190610fca565b610412565b005b6100df60048036038101906100da9190610eb6565b6106d8565b6040516100ec9190611320565b60405180910390f35b61010f600480360381019061010a9190610f4b565b610761565b005b61011961095f565b6040516101269190611440565b60405180910390f35b61014960048036038101906101449190610eb6565b610965565b60405161015691906112d5565b60405180910390f35b61017960048036038101906101749190610fca565b6109ad565b60405161018691906112d5565b60405180910390f35b610197610ae8565b6040516101a49190611440565b60405180910390f35b6005600160003373ffffffffffffffffffffffffffffffffffffffff1673ffffffffffffffffffffffffffffffffffffffff16815260200190815260200160002060009054906101000a900460ff1660ff161061023f576040517f08c379a0000000000000000000000000000000000000000000000000000000008152600401610236906113c0565b60405180910390fd5b600073ffffffffffffffffffffffffffffffffffffffff1660028360405161026791906112be565b908152602001604051809103902060009054906101000a900473ffffffffffffffffffffffffffffffffffffffff1673ffffffffffffffffffffffffffffffffffffffff16146102ec576040517f08c379a00000000000000000000000000000000000000000000000000000000081526004016102e3906113a0565b60405180910390fd5b806002836040516102fd91906112be565b908152602001604051809103902060006101000a81548173ffffffffffffffffffffffffffffffffffffffff021916908373ffffffffffffffffffffffffffffffffffffffff160217905550600160003373ffffffffffffffffffffffffffffffffffffffff1673ffffffffffffffffffffffffffffffffffffffff168152602001908152602001600020600081819054906101000a900460ff16809291906103a59061174d565b91906101000a81548160ff021916908360ff160217905550506000808154809291906103d090611704565b91905055507f6ba0831d2f62ae5cbf7214bcc1d79c5da1d705f12811efda0beaa840006f874e33836040516104069291906112f0565b60405180910390a15050565b600073ffffffffffffffffffffffffffffffffffffffff1660028360405161043a91906112be565b908152602001604051809103902060009054906101000a900473ffffffffffffffffffffffffffffffffffffffff1673ffffffffffffffffffffffffffffffffffffffff1614156104c0576040517f08c379a00000000000000000000000000000000000000000000000000000000081526004016104b7906113e0565b60405180910390fd5b6002826040516104d091906112be565b908152602001604051809103902060009054906101000a900473ffffffffffffffffffffffffffffffffffffffff1673ffffffffffffffffffffffffffffffffffffffff1661051f83836109ad565b73ffffffffffffffffffffffffffffffffffffffff1614610575576040517f08c379a000000000000000000000000000000000000000000000000000000000815260040161056c90611380565b60405180910390fd5b60028260405161058591906112be565b908152602001604051809103902060006101000a81549073ffffffffffffffffffffffffffffffffffffffff02191690556000600160003373ffffffffffffffffffffffffffffffffffffffff1673ffffffffffffffffffffffffffffffffffffffff16815260200190815260200160002060009054906101000a900460ff1660ff16111561068457600160003373ffffffffffffffffffffffffffffffffffffffff1673ffffffffffffffffffffffffffffffffffffffff168152602001908152602001600020600081819054906101000a900460ff168092919061066a906116da565b91906101000a81548160ff021916908360ff160217905550505b600080815480929190610696906116b0565b91905055507fbde89fbecf33195f625600352e9f2199a66311d69c15f2d83ad619069c34ce2a33836040516106cc9291906112f0565b60405180910390a15050565b60008082905060008151905060006040518060400160405280601a81526020017f19457468657265756d205369676e6564204d6573736167653a0a0000000000008152509050600061072983610af1565b90508181856040516020016107409392919061128d565b60405160208183030381529060405280519060200120945050505050919050565b600073ffffffffffffffffffffffffffffffffffffffff1660028460405161078991906112be565b908152602001604051809103902060009054906101000a900473ffffffffffffffffffffffffffffffffffffffff1673ffffffffffffffffffffffffffffffffffffffff16141561080f576040517f08c379a0000000000000000000000000000000000000000000000000000000008152600401610806906113e0565b60405180910390fd5b60028360405161081f91906112be565b908152602001604051809103902060009054906101000a900473ffffffffffffffffffffffffffffffffffffffff1673ffffffffffffffffffffffffffffffffffffffff1661086e84836109ad565b73ffffffffffffffffffffffffffffffffffffffff16146108c4576040517f08c379a00000000000000000000000000000000000000000000000000000000081526004016108bb90611380565b60405180910390fd5b816002846040516108d591906112be565b908152602001604051809103902060006101000a81548173ffffffffffffffffffffffffffffffffffffffff021916908373ffffffffffffffffffffffffffffffffffffffff1602179055507f790562619fc096ade6a6587be53f43fac2aba83830b63607b03a016918d76cc733846040516109529291906112f0565b60405180910390a1505050565b60005481565b600060028260405161097791906112be565b908152602001604051809103902060009054906101000a900473ffffffffffffffffffffffffffffffffffffffff169050919050565b600060418251146109f3576040517f08c379a00000000000000000000000000000000000000000000000000000000081526004016109ea90611400565b60405180910390fd5b60006109fe846106d8565b905060008060006020860151925060408601519150606086015160001a9050601b8160ff161015610a3957601b81610a36919061157f565b90505b601b8160ff161480610a4e5750601c8160ff16145b610a8d576040517f08c379a0000000000000000000000000000000000000000000000000000000008152600401610a8490611420565b60405180910390fd5b60018482858560405160008152602001604052604051610ab0949392919061133b565b6020604051602081039080840390855afa158015610ad2573d6000803e3d6000fd5b5050506020604051035194505050505092915050565b60008054905090565b60606000821415610b39576040518060400160405280600181526020017f30000000000000000000000000000000000000000000000000000000000000008152509050610dcc565b60006064905060008167ffffffffffffffff811115610b81577f4e487b7100000000000000000000000000000000000000000000000000000000600052604160045260246000fd5b6040519080825280601f01601f191660200182016040528015610bb35781602001600182028036833780820191505090505b50905060005b60008514610c6b576000600a86610bd09190611777565b9050600a86610bdf91906115b6565b9550806030610bee9190611529565b60f81b838380610bfd90611704565b945081518110610c36577f4e487b7100000000000000000000000000000000000000000000000000000000600052603260045260246000fd5b60200101907effffffffffffffffffffffffffffffffffffffffffffffffffffffffffffff1916908160001a90535050610bb9565b60008167ffffffffffffffff811115610cad577f4e487b7100000000000000000000000000000000000000000000000000000000600052604160045260246000fd5b6040519080825280601f01601f191660200182016040528015610cdf5781602001600182028036833780820191505090505b50905060005b82811015610dc3578381600185610cfc91906115e7565b610d0691906115e7565b81518110610d3d577f4e487b7100000000000000000000000000000000000000000000000000000000600052603260045260246000fd5b602001015160f81c60f81b828281518110610d81577f4e487b7100000000000000000000000000000000000000000000000000000000600052603260045260246000fd5b60200101907effffffffffffffffffffffffffffffffffffffffffffffffffffffffffffff1916908160001a9053508080610dbb90611704565b915050610ce5565b50809450505050505b919050565b6000610de4610ddf8461148c565b61145b565b905082815260208101848484011115610dfc57600080fd5b610e0784828561166e565b509392505050565b6000610e22610e1d846114bc565b61145b565b905082815260208101848484011115610e3a57600080fd5b610e4584828561166e565b509392505050565b600081359050610e5c81611846565b92915050565b600082601f830112610e7357600080fd5b8135610e83848260208601610dd1565b91505092915050565b600082601f830112610e9d57600080fd5b8135610ead848260208601610e0f565b91505092915050565b600060208284031215610ec857600080fd5b600082013567ffffffffffffffff811115610ee257600080fd5b610eee84828501610e8c565b91505092915050565b60008060408385031215610f0a57600080fd5b600083013567ffffffffffffffff811115610f2457600080fd5b610f3085828601610e8c565b9250506020610f4185828601610e4d565b9150509250929050565b600080600060608486031215610f6057600080fd5b600084013567ffffffffffffffff811115610f7a57600080fd5b610f8686828701610e8c565b9350506020610f9786828701610e4d565b925050604084013567ffffffffffffffff811115610fb457600080fd5b610fc086828701610e62565b9150509250925092565b60008060408385031215610fdd57600080fd5b600083013567ffffffffffffffff811115610ff757600080fd5b61100385828601610e8c565b925050602083013567ffffffffffffffff81111561102057600080fd5b61102c85828601610e62565b9150509250929050565b61103f8161161b565b82525050565b61104e8161162d565b82525050565b600061105f826114ec565b6110698185611502565b935061107981856020860161167d565b80840191505092915050565b6000611090826114f7565b61109a818561150d565b93506110aa81856020860161167d565b6110b381611835565b840191505092915050565b60006110c9826114f7565b6110d3818561151e565b93506110e381856020860161167d565b80840191505092915050565b60006110fc60118361150d565b91507f496e76616c6964207369676e61747572650000000000000000000000000000006000830152602082019050919050565b600061113c60158361150d565b91507f494420616c7265616479207265676973746572656400000000000000000000006000830152602082019050919050565b600061117c601b8361150d565b91507f526567697374726174696f6e206c696d697420657863656564656400000000006000830152602082019050919050565b60006111bc60138361150d565b91507f5573657220646f6573206e6f74206578697374000000000000000000000000006000830152602082019050919050565b60006111fc60188361150d565b91507f496e76616c6964207369676e6174757265206c656e67746800000000000000006000830152602082019050919050565b600061123c600f8361150d565b91507f496e76616c696420762076616c756500000000000000000000000000000000006000830152602082019050919050565b61127881611657565b82525050565b61128781611661565b82525050565b60006112998286611054565b91506112a58285611054565b91506112b18284611054565b9150819050949350505050565b60006112ca82846110be565b915081905092915050565b60006020820190506112ea6000830184611036565b92915050565b60006040820190506113056000830185611036565b81810360208301526113178184611085565b90509392505050565b60006020820190506113356000830184611045565b92915050565b60006080820190506113506000830187611045565b61135d602083018661127e565b61136a6040830185611045565b6113776060830184611045565b95945050505050565b60006020820190508181036000830152611399816110ef565b9050919050565b600060208201905081810360008301526113b98161112f565b9050919050565b600060208201905081810360008301526113d98161116f565b9050919050565b600060208201905081810360008301526113f9816111af565b9050919050565b60006020820190508181036000830152611419816111ef565b9050919050565b600060208201905081810360008301526114398161122f565b9050919050565b6000602082019050611455600083018461126f565b92915050565b6000604051905081810181811067ffffffffffffffff8211171561148257611481611806565b5b8060405250919050565b600067ffffffffffffffff8211156114a7576114a6611806565b5b601f19601f8301169050602081019050919050565b600067ffffffffffffffff8211156114d7576114d6611806565b5b601f19601f8301169050602081019050919050565b600081519050919050565b600081519050919050565b600081905092915050565b600082825260208201905092915050565b600081905092915050565b600061153482611657565b915061153f83611657565b9250827fffffffffffffffffffffffffffffffffffffffffffffffffffffffffffffffff03821115611574576115736117a8565b5b828201905092915050565b600061158a82611661565b915061159583611661565b92508260ff038211156115ab576115aa6117a8565b5b828201905092915050565b60006115c182611657565b91506115cc83611657565b9250826115dc576115db6117d7565b5b828204905092915050565b60006115f282611657565b91506115fd83611657565b9250828210156116105761160f6117a8565b5b828203905092915050565b600061162682611637565b9050919050565b6000819050919050565b600073ffffffffffffffffffffffffffffffffffffffff82169050919050565b6000819050919050565b600060ff82169050919050565b82818337600083830152505050565b60005b8381101561169b578082015181840152602081019050611680565b838111156116aa576000848401525b50505050565b60006116bb82611657565b915060008214156116cf576116ce6117a8565b5b600182039050919050565b60006116e582611661565b915060008214156116f9576116f86117a8565b5b600182039050919050565b600061170f82611657565b91507fffffffffffffffffffffffffffffffffffffffffffffffffffffffffffffffff821415611742576117416117a8565b5b600182019050919050565b600061175882611661565b915060ff82141561176c5761176b6117a8565b5b600182019050919050565b600061178282611657565b915061178d83611657565b92508261179d5761179c6117d7565b5b828206905092915050565b7f4e487b7100000000000000000000000000000000000000000000000000000000600052601160045260246000fd5b7f4e487b7100000000000000000000000000000000000000000000000000000000600052601260045260246000fd5b7f4e487b7100000000000000000000000000000000000000000000000000000000600052604160045260246000fd5b6000601f19601f8301169050919050565b61184f8161161b565b811461185a57600080fd5b5056fea26469706673582212201bc4e77f9bcf54945657adfdc6eb19632eab2d27d2c12060565d90848f83a7cc64736f6c63430008000033",
  "immutableReferences": {},
  "source": "// SPDX-License-Identifier: UNLICENSED\r\npragma solidity ^0.8.0;\r\n\r\ncontract Auth {\r\n    uint public userNums; // \r\n    mapping(address => uint8) private signTimes; // msg.sender -> \r\n    mapping(string => address) private id2PubAddr; // id -> \r\n\r\n    event Register(address _add, string _id);\r\n    event Modify(address _add, string _id);\r\n    event Destroy(address _add, string _id);\r\n\r\n    constructor() {\r\n        userNums = 0;\r\n    }\r\n\r\n    // ECDSA  signature  v, r, s\r\n    function recoverSign(\r\n        string memory _msg,\r\n        bytes memory _signature\r\n    ) public pure returns (address) {\r\n        require(_signature.length == 65, \"Invalid signature length\");\r\n     \r\n        bytes32 _hash = getEthSignedMessageHash(_msg);\r\n        bytes32 r;\r\n        bytes32 s;\r\n        uint8 v;\r\n\r\n        //  assembly  _signature  r, s, v\r\n        assembly {\r\n            r := mload(add(_signature, 32)) //  32  r\r\n            s := mload(add(_signature, 64)) //  32  s\r\n            v := byte(0, mload(add(_signature, 96))) //  1  v\r\n        }\r\n\r\n        //  v  0  1 27  28\r\n        if (v < 27) {\r\n            v += 27;\r\n        }\r\n\r\n        require(v == 27 || v == 28, \"Invalid v value\");\r\n\r\n        return ecrecover(_hash, v, r, s);\r\n    }\r\n    /**\r\n     * ! /\r\n     * ? idserveruuid\r\n     */\r\n    // \r\n    function register(\r\n        string memory _id,\r\n        address _pubAddr\r\n        // string memory _msg,\r\n        // bytes memory _signature\r\n    ) public {\r\n        require(signTimes[msg.sender] < 5, \"Registration limit exceeded\");\r\n        require(id2PubAddr[_id] == address(0), \"ID already registered\");\r\n        // id2PubAddr[_id] = recoverSign(_msg, _signature);// \r\n        id2PubAddr[_id] = _pubAddr;\r\n        signTimes[msg.sender]++;\r\n        userNums++;\r\n        emit Register(msg.sender, _id);\r\n    }\r\n\r\n    // (pubAddr)\r\n    function verify(string memory _id) public view returns (address) {        \r\n        return id2PubAddr[_id];\r\n    }\r\n\r\n    // \r\n    function modify(\r\n        string memory _id,\r\n        address _newPubAddr,\r\n        // string memory _msg,\r\n        bytes memory _signature\r\n    ) public {\r\n        require(id2PubAddr[_id] != address(0), \"User does not exist\");\r\n        require(\r\n            recoverSign(_id, _signature) == id2PubAddr[_id],\r\n            \"Invalid signature\"\r\n        );\r\n\r\n        id2PubAddr[_id] = _newPubAddr;\r\n        emit Modify(msg.sender, _id);\r\n    }\r\n\r\n    // \r\n    function destroy(\r\n        string memory _id,\r\n        // string memory _msg,\r\n        bytes memory _signature\r\n    ) public {\r\n        require(id2PubAddr[_id] != address(0), \"User does not exist\");\r\n        require(\r\n            recoverSign(_id, _signature) == id2PubAddr[_id],\r\n            \"Invalid signature\"\r\n        );\r\n\r\n        delete id2PubAddr[_id];\r\n        //  msg.sender , \r\n        if (signTimes[msg.sender] > 0) signTimes[msg.sender]--;\r\n        userNums--;\r\n        emit Destroy(msg.sender, _id);\r\n    }\r\n\r\n    function test() public view returns (uint) {\r\n        return userNums;\r\n    }\r\n\r\n    function getEthSignedMessageHash(string memory _message) public pure returns (bytes32) {\r\n        bytes memory msgBytes = bytes(_message);\r\n        uint256 msgLength = msgBytes.length;\r\n        bytes memory prefix = \"\\x19Ethereum Signed Message:\\n\";\r\n        bytes memory lengthStr = uintToString(msgLength);\r\n\r\n        return keccak256(abi.encodePacked(prefix, lengthStr, msgBytes));\r\n    }\r\n\r\n    //  uint  string\r\n    function uintToString(uint256 v) internal pure returns (bytes memory) {\r\n        if (v == 0) return \"0\";\r\n        uint256 maxlength = 100;\r\n        bytes memory reversed = new bytes(maxlength);\r\n        uint256 i = 0;\r\n        while (v != 0) {\r\n            uint256 remainder = v % 10;\r\n            v = v / 10;\r\n            reversed[i++] = bytes1(uint8(48 + remainder));\r\n        }\r\n        bytes memory s = new bytes(i);\r\n        for (uint256 j = 0; j < i; j++) {\r\n            s[j] = reversed[i - 1 - j];\r\n        }\r\n        return s;\r\n    }\r\n}\r\n",
  "sourcePath": "D:\\zproject\\z_test\\graduate_design\\auth\\contracts\\Auth.sol",
  "compiler": {
    "name": "solc",
    "version": "0.8.0+commit.c7dfd78e.Emscripten.clang"
  },
  "schemaVersion": "3.4.16",
  "updatedAt": "2025-05-11T18:12:46.798Z",
  "devdoc": {
    "kind": "dev",
    "methods": {},
    "version": 1
  },
  "userdoc": {
    "kind": "user",
    "methods": {
      "register(string,address)": {
        "notice": "! / ? idserveruuid"
      }
    },
    "version": 1
  }
}